:100000000C94B6020C94DE020C94DE020C94DE0218
:100010000C94DE020C94DE020C94DE020C94DE02E0
:100020000C94DE020C94DE020C94DE020C94DE02D0
:100030000C94DE020C94DE020C94DE020C94DE02C0
:100040000C94A40A0C94DE020C94140B0C94EE0A8B
:100050000C94DE020C94DE020C94DE020C94DE02A0
:100060000C94DE020C94DE02050800FF0C4B00002D
:100070000000003E5B4F5B3E3E6B4F6B3E1C3E7C88
:100080003E1C183C7E3C181C577D571C1C5E7F5E36
:100090001C00183C1800FFE7C3E7FF0018241800F5
:1000A000FFE7DBE7FF30483A060E2629792926408C
:1000B0007F050507407F05253F5A3CE73C5A7F3EB8
:1000C0001C1C08081C1C3E7F14227F22145F5F004A
:1000D0005F5F06097F017F006689956A60606060E6
:1000E0006094A2FFA29408047E040810207E2010D1
:1000F00008082A1C08081C2A08081E101010100CDA
:100100001E0C1E0C30383E3830060E3E0E06000027
:1001100000000000005F00000007000700147F14CB
:100120007F14242A7F2A122313086462364956203A
:10013000500008070300001C2241000041221C005F
:100140002A1C7F1C2A08083E08080080703000081E
:1001500008080808000060600020100804023E51F2
:1001600049453E00427F4000724949494621414984
:100170004D331814127F1027454545393C4A4949EB
:100180003141211109073649494936464949291E55
:100190000000140000004034000000081422411444
:1001A00014141414004122140802015909063E4196
:1001B0005D594E7C1211127C7F494949363E4141BE
:1001C00041227F4141413E7F494949417F09090917
:1001D000013E414151737F0808087F00417F410083
:1001E0002040413F017F081422417F404040407F32
:1001F000021C027F7F0408107F3E4141413E7F097F
:100200000909063E4151215E7F09192946264949BF
:10021000493203017F01033F4040403F1F204020FF
:100220001F3F4038403F63140814630304780403FD
:100230006159494D43007F414141020408102000AB
:100240004141417F0402010204404040404000031C
:1002500007080020545478407F28444438384444E8
:100260004428384444287F385454541800087E09E0
:100270000218A4A49C787F0804047800447D400000
:100280002040403D007F1028440000417F40007C1A
:10029000047804787C080404783844444438FC1812
:1002A00024241818242418FC7C08040408485454F6
:1002B000542404043F44243C4040207C1C20402023
:1002C0001C3C4030403C44281028444C9090907C8A
:1002D0004464544C4400083641000000770000009C
:1002E0004136080002010204023C2623263C1EA1DE
:1002F000A161123A4040207A38545455592155553D
:1003000079412154547841215554784020545579ED
:10031000400C1E527212395555555939545454597E
:1003200039555454580000457C410002457D420037
:1003300001457C40F0292429F0F0282528F07C5440
:100340005545002054547C547C0A097F4932494960
:1003500049323248484832324A4848303A414121CD
:100360007A3A42402078009DA0A07D394444443927
:100370003D4040403D3C24FF2424487E4943662BB9
:100380002FFC2F2BFF0929F620C0887E090320545B
:100390005479410000447D413048484A3238404059
:1003A000227A007A0A0A727D0D19317D2629292FB9
:1003B00028262929292630484D40203808080808D1
:1003C00008080808382F10C8ACBA2F102834FA00D3
:1003D000007B000008142A142222142A1408AA0000
:1003E0005500AAAA55AA55AA000000FF0010101037
:1003F000FF00141414FF001010FF00FF1010F01085
:10040000F0141414FC001414F700FF0000FF00FFA8
:100410001414F404FC141417101F10101F101F14D0
:1004200014141F00101010F0000000001F10101016
:10043000101F10101010F010000000FF101010100E
:100440001010101010FF10000000FF140000FF003B
:10045000FF00001F10170000FC04F41414171017FD
:100460001414F404F40000FF00F71414141414140A
:1004700014F700F7141414171410101F101F14147D
:1004800014F4141010F010F000001F101F000000F2
:100490001F14000000FC140000F010F01010FF10FA
:1004A000FF141414FF141010101F00000000F010AF
:1004B000FFFFFFFFFFF0F0F0F0F0FFFFFF00000094
:1004C0000000FFFF0F0F0F0F0F38444438447C2A01
:1004D0002A3E147E02020606027E027E026355490F
:1004E00041633844443C04407E201E2006027E02C4
:1004F0000299A5E7A5991C2A492A1C4C7201724C45
:10050000304A4D4D303048784830BC625A463D3E06
:10051000494949007E0101017E2A2A2A2A2A4444A7
:100520005F444440514A444040444A51400000FF27
:100530000103E080FF000008086B6B0836123624C8
:1005400036060F090F0600001818000000101000F2
:100550003040FF0101001F01011E00191D1712008C
:100560003C3C3C3C0000000000004C0B11241FBE32
:10057000CFEFD8E0DEBFCDBF12E0A0E0B1E0E2E017
:10058000F9E102C005900D92AA31B107D9F723E035
:10059000AAE1B2E001C01D92A83AB207E1F712E069
:1005A000C6EBD2E004C02197FE010E94740CC53B4B
:1005B000D107C9F70E949C0B0C947F0C0C9400008F
:1005C000CF92DF92EF92FF920F931F93CF93DF931F
:1005D0006C017A018B01C0E0D0E0CE15DF0589F017
:1005E000D8016D918D01D601ED91FC910190F081C2
:1005F000E02DC6010995892B11F47E0102C02196D8
:10060000ECCFC701DF91CF911F910F91FF90EF9039
:10061000DF90CF900895FC01538D448D252F30E05D
:10062000842F90E0821B930B541710F0CF960895FF
:1006300001970895FC01918D828D981761F0828D4C
:10064000DF01A80FB11D5D968C91928D9F5F9F7306
:10065000928F90E008958FEF9FEF0895FC01918DA8
:10066000828D981731F0828DE80FF11D858D90E015
:1006700008958FEF9FEF0895FC01918D228D892FB2
:1006800090E0805C9F4F821B91098F73992708959A
:1006900083ED92E00E943C0321E0892B09F420E0E5
:1006A000822F0895FC01848DDF01A80FB11DA35A8C
:1006B000BF4F2C91848D90E001968F739927848F82
:1006C000A689B7892C93A089B1898C9180648C9379
:1006D000938D848D981306C00288F389E02D808164
:1006E0008F7D80830895EF92FF920F931F93CF9396
:1006F000DF93EC0181E0888F9B8D8C8D981305C072
:10070000E889F989808185FD24C0F62E0B8D10E0E3
:100710000F5F1F4F0F731127E02E8C8DE8120CC056
:100720000FB607FCFACFE889F989808185FFF5CFFC
:10073000CE010E945203F1CF8B8DFE01E80FF11D17
:10074000E35AFF4FF0820B8FEA89FB898081806238
:1007500007C0EE89FF896083E889F9898081806418
:10076000808381E090E0DF91CF911F910F91FF9006
:10077000EF900895CF93DF93EC01888D8823C9F023
:10078000EA89FB89808185FD05C0A889B9898C919A
:1007900086FD0FC00FB607FCF5CF808185FFF2CF35
:1007A000A889B9898C9185FFEDCFCE010E945203B3
:1007B000E7CFDF91CF91089580E090E0892B29F079
:1007C0000E94480381110C9400000895DC01FB0194
:1007D000118210821582148214968D919C91159726
:1007E0009383828316968D919C9117979783868326
:1007F000108611861286138614861586168617862D
:10080000118A108A138A128A158A148A178A168AFC
:10081000118E108E138E128E158E148E168E178ECC
:1008200010A211A212A213A213A612A61896ED915D
:10083000FC91199715A214A281E090E097A386A3DA
:1008400011A610A608950F931F93CF93DF93FB017A
:10085000EA0137FD0DC0C901B801640F751F811D84
:10086000911D9F0140E050E00E94330CCB0115C068
:1008700088279927DC01801B910BA20BB30B0E94E8
:100880001F0CC817D90710F09E0104C0BE016E0FDF
:100890007F1F9B01281B390BC901DF91CF911F914D
:1008A0000F9108958F929F92AF92BF92CF92DF9255
:1008B000EF92FF920F931F93CF93DF9300D000D05E
:1008C0001F92CDB7DEB7DA0111961C921E928AE70D
:1008D00092E013969C938E9312978AE292E015967B
:1008E0009C938E93149785E090E017969C938E933B
:1008F000169788E090E019969C938E9318976D3028
:1009000011F06A3029F481E01F968C931F9703C081
:100910001F961C921F9780EE860F8F3508F05BC0E4
:1009200081E01E968C931E9785E0689FB00111248C
:100930001A961D921D921D921C921D97AE014F5F3B
:100940005F4F80E090E020E030E04B01E6E08E0E6B
:10095000911CF401E80FF91FE859FF4FA490FA0128
:10096000A192AF01B12C00E010E07501002E02C091
:10097000F594E7940A94E2F7E0FE22C01A96CD902F
:10098000DD90ED90FC901D97FFEFCF1ADF0AEF0A84
:10099000FF0A1A96CD92DD92ED92FC921D97790195
:1009A000EE0CFF1CB70166587D4FFB0191838083DD
:1009B000B701665D7D4FFB01118300832F5F3F4FC1
:1009C0000F5F1F4F0830110581F6019685309105A4
:1009D00009F0BFCF02C01E961C920F900F900F908F
:1009E0000F900F90DF91CF911F910F91FF90EF909B
:1009F000DF90CF90BF90AF909F908F9008954F92CF
:100A00005F926F927F928F929F92AF92BF92CF929E
:100A1000DF92EF92FF920F931F93CF93DF93EC013E
:100A2000E881F9810688F789E02D4AE152E00995CD
:100A3000E885F9858281938120813181821B930B26
:100A40002091200230912102821B930BA0E0B0E0A4
:100A5000408551856285738584179507A607B7077A
:100A600044F5209122023091230244855585668504
:100A7000778586819781A481B5818A1B9B0B821B18
:100A8000930BA0E0B0E084179507A607B7070CF416
:100A90007EC080899189A0E0B0E080879187A2879D
:100AA000B387420F531F611D711D448755876687A9
:100AB000778780912802811103C080E090E05CC0BC
:100AC000812C912C54018091240290912502A091B7
:100AD0002602B0912702E885F98588169906AA06AC
:100AE000BB06C0F5A0911E02B0911F02C401880F81
:100AF000991FA80FB91F2D913C9144845584668499
:100B00007784420E531E611C711C20911C0230918F
:100B10001D02D901A80FB91F8D919C91C084D18469
:100B2000E284F384C80ED91EE11CF11C608171813E
:100B300080E090E0C60ED71EE81EF91E22813381A8
:100B4000890120E030E00C151D052E053F050CF451
:100B50005AC020C0209120023091210280859185C9
:100B6000A285B385820F931FA11DB11D8087918738
:100B7000A287B38781E090E0A885B98520E1EAE10A
:100B8000F2E0549601900D922A95E1F746C080E07C
:100B900090E043C0C616D706E806F90684F5A1E042
:100BA000B0E0C480D580E12CF12C4C0C5D1C6E1C97
:100BB0007F1C26813781890120E030E0041515056E
:100BC00026053705B4F04C145D046E047F048CF0E8
:100BD000AB2B79F4A881B981E0A4F1A406A117A1F7
:100BE00024A135A11C96ED91FC911D97A201CE0187
:100BF00009958FEF881A980AA80AB80A64CFC70126
:100C0000B601A0E0CDCF601771078207930714F4F7
:100C1000C901B801A2E0B0E0C4CFDF91CF911F912C
:100C20000F91FF90EF90DF90CF90BF90AF909F908B
:100C30008F907F906F905F904F9008952F923F928A
:100C40004F925F926F927F928F929F92AF92BF92DC
:100C5000CF92DF92EF92FF920F931F93CF93DF9388
:100C6000CDB7DEB72C970FB6F894DEBF0FBECDBF61
:100C70009A8389837C876B873A0129011801CD8289
:100C8000DE82EF82F886BA86A9862617370730F407
:100C90009B858C853C872B87492E582E261437043C
:100CA00028F4962D872D3101292E382E20E030E0B2
:100CB000A901EB85FC854E165F0608F440C0630170
:100CC0002C143D04B0F1A981BA81ED91FC911197EA
:100CD000848595859C838B8349015A019FEF891AEE
:100CE000990AA90AB90A0084F185E02D69857A85F7
:100CF000CD010995E12CF12C01E010E09C01A60149
:100D00006B857C8589819A81EB81FC8109958D8138
:100D10009E81AF81B88588169906AA06BB0618F091
:100D2000812C912C54019FEFC91AD90AA501940175
:100D3000C7CFAB85BC851196BC87AB87BACF2C9645
:100D40000FB6F894DEBF0FBECDBFDF91CF911F91DC
:100D50000F91FF90EF90DF90CF90BF90AF909F905A
:100D60008F907F906F905F904F903F902F9008955D
:100D7000089580E090E00895CF93DF93009779F095
:100D8000FC0101900020E9F73197AF01481B590B96
:100D9000BC0183ED92E00E94E002EC0102C0C0E0E1
:100DA000D0E042E050E06CE671E083ED92E00E941A
:100DB000E0028C0F9D1FDF91CF9108950E947A0C65
:100DC0002F923F924F925F926F927F928F929F925B
:100DD000AF92BF92CF92DF92EF92FF920F931F9349
:100DE000CF93DF93CDB7DEB762970FB6F894DEBF2F
:100DF0000FBECDBF2C017C876B871A013E832D83EC
:100E00003801DC82CB82BA82A9821FA1261737075C
:100E100030F49B858C853C872B879D838E83621461
:100E2000730428F4922D832D1301692E782E4981A5
:100E30005A819A0140E050E02F87388B498B5A8BBA
:100E4000B40180E090E00E94330C6F83788789873B
:100E50009A878F8098848D819E810196DC012B85F5
:100E60003C85A21BB30BBE87AD87D201ED91FC91EF
:100E7000EE2009F4C1C02F81388549855A85442761
:100E800055270084F185E02D6B817C81C201099595
:100E900028A5222309F477C01123D9F16214730421
:100EA00008F49AC1D201ED91FC910684F785E02DFA
:100EB000AA24A394C12CD12CEE24E394F12C8C0110
:100EC0002D853E85A3016D817E81C2010995C401F6
:100ED000A0E0B0E0BC01CD016F5F7F4F8F4F9F4F0F
:100EE0002F85388949895A890E94330C4B01D201D8
:100EF000ED91FC919B01AC01442755270084F185BD
:100F0000E02D6B817C81C2010995B1E06B1A7108FB
:100F1000C5CF6214730408F45FC1D201ED91FC9156
:100F20000684F785E02DA12CC12CD12CEE24E3946E
:100F3000F12C8C012D853E85A1016B857C85C2013C
:100F40000995C401A0E0B0E0BC01CD016F5F7F4F07
:100F50008F4F9F4F2F85388949895A890E94330CBA
:100F60004B01D201ED91FC919B01AC014427552727
:100F70000084F185E02D6B817C81C2010995BFEF72
:100F80002B1A3B0AC6CF1123E1F06214730408F454
:100F900023C1D201ED91FC910684F785E02DAA24AE
:100FA000A3946401E980FA800B811C812D853E8524
:100FB000A3016D817E81C2010995B1E06B1A7108B0
:100FC000E4CF6214730408F407C1D201ED91FC91DF
:100FD0000684F785E02DA12C6401E980FA800B815D
:100FE0001C812D853E85A1016B857C85C2010995FB
:100FF000BFEF2B1A3B0AE5CFC301821993099C016D
:101000002150310949010684F785E02D112309F4A7
:1010100072C0AA24A394CF80D884E980FA800B817F
:101020001C812D853E85A1016D817E81C2010995BE
:10103000AD85BE85CD01A0E0B0E08F87988BA98BF0
:10104000BA8B8C019D014F81588569817A81C201DB
:101050000E94230498878F83D201ED91FC91A10116
:101060004F5F5F4F0088F189E02DA12C6C01E98072
:10107000FA800B811C8194016B857C85C2010995E6
:10108000840120E030E04F81588569817A81C20176
:101090000E9423041C01D201ED91FC910684F78586
:1010A000E02D6C01E980FA800B811C812D853E8545
:1010B000A3016B857C85C20109950F851889298953
:1010C0003A89A10169817A81C2010E942304D20177
:1010D000ED91FC91A301415051090088F189E02D67
:1010E000AA24A3946C01E980FA800B811C819401ED
:1010F0006D817E816FC0A12CCF80D884E980FA8079
:101100000B811C812D853E85A1016B857C85C201EB
:1011100009954D855E859A0140E050E02F87388B18
:10112000498B5A8B89019A014F81588569817A814F
:10113000C2010E94230498878F83D201ED91FC9114
:10114000A1014F5F5F4F0088F189E02D6C01E980BC
:10115000FA800B811C8194016D817E81C201099509
:10116000840120E030E04F81588569817A81C20195
:101170000E9423041C01D201ED91FC910684F785A5
:10118000E02DAA24A3946C01E980FA800B811C81D4
:101190002D853E85A3016D817E81C20109950F8554
:1011A000188929893A89A10169817A81C2010E943D
:1011B0002304D201ED91FC91A30141505109008813
:1011C000F189E02D6C01E980FA800B811C8194018A
:1011D0006B857C85C201099562960FB6F894DEBFD7
:1011E0000FBECDBFDF91CF911F910F91FF90EF9078
:1011F000DF90CF90BF90AF909F908F907F906F9037
:101200005F904F903F902F9008952F923F924F9272
:101210005F926F927F928F929F92AF92BF92CF9286
:10122000DF92EF92FF920F931F93CF93DF93CDB78F
:10123000DEB72B970FB6F894DEBF0FBECDBF9B87EE
:101240008A874B015E834D83398728871A830983F8
:10125000FC82EB82AF82EF2821F421E030E03C8376
:101260002B838B819C811C01412C512CB60180E089
:1012700090E0A20191010E94330C9B01AC015B0143
:10128000AA85BB85ED91FC9111970084F185E02D35
:1012900069817A81CD010995612C712CE885F985E8
:1012A0006E167F06D1F1AA85BB85ED91FC91BF81B9
:1012B0000484F585E02DE12CF12C01E010E09C0187
:1012C0004D815E81BB2319F04619570902C0460DB6
:1012D000571DB4018A859B850995C501A0E0B0E042
:1012E000BC01CD016F5F7F4F8F4F9F4FA2019101D6
:1012F0000E94330C9B01AC015B01AA85BB85ED917B
:10130000FC9111970084F185E02D69817A81CD01EE
:101310000995BFEF6B1A7B0AC1CF8D819E819C011D
:1013200040E050E0B40180E090E08F80CB80DC8032
:10133000E980FA8083010E9400002B960FB6F89492
:10134000DEBF0FBECDBFDF91CF911F910F91FF90F8
:10135000EF90DF90CF90BF90AF909F908F907F9055
:101360006F905F904F903F902F9008952F923F92F3
:101370004F925F926F927F928F929F92AF92BF92A5
:10138000CF92DF92EF92FF920F931F93CF93DF9351
:10139000CDB7DEB72B970FB6F894DEBF0FBECDBF2B
:1013A0009B878A871B014A013E832D831A83098309
:1013B000FC82EB82A986EF2821F421E030E03C8317
:1013C0002B834B815C812A01612C712CB60180E05A
:1013D00090E0A30192010E94330C9B01AC015B01E0
:1013E000AA85BB85ED91FC9111970084F185E02DD4
:1013F00069817A81CD010995B985B11108C0ED8166
:10140000FE81E20DF31DF887EF8361013FC091017A
:101410004D815E81241B350B38872F836101EF815D
:10142000F885CE16DF0609F467C0AA85BB85ED9165
:10143000FC9111970484F585E02DE12CF12C01E05D
:1014400010E09C01A401B601CD010995C501A0E001
:10145000B0E0BC01CD016F5F7F4F8F4F9F4FA30165
:1014600092010E94330C9B01AC015B01AA85BB85F4
:10147000ED91FC9111970084F185E02D69817A81CD
:10148000CD010995B1E0CB1AD108C9CFEF81F8851C
:10149000CE16DF0689F1AA85BB85ED91FC911197E7
:1014A0000484F585E02DE12CF12C01E010E09C0195
:1014B000A401B601CD010995C501A0E0B0E0BC01D1
:1014C000CD016F5F7F4F8F4F9F4FA30192010E940D
:1014D000330C9B01AC015B01AA85BB85ED91FC91AE
:1014E00011970084F185E02D69817A81CD010995FC
:1014F000BFEFCB1ADB0ACACF940140E050E0B10144
:1015000080E090E08984CB80DC80E980FA800D81E6
:101510001E810E9400002B960FB6F894DEBF0FBE0E
:10152000CDBFDF91CF911F910F91FF90EF90DF9092
:10153000CF90BF90AF909F908F907F906F905F9073
:101540004F903F902F9008951F920F920FB60F92D9
:1015500011242F933F938F939F93AF93BF938091C9
:10156000CF029091D002A091D102B091D2023091DD
:10157000CE0223E0230F2D3720F40196A11DB11DCB
:1015800005C026E8230F0296A11DB11D2093CE02AF
:101590008093CF029093D002A093D102B093D20255
:1015A0008091CA029091CB02A091CC02B091CD0261
:1015B0000196A11DB11D8093CA029093CB02A09306
:1015C000CC02B093CD02BF91AF919F918F913F918B
:1015D0002F910F900FBE0F901F9018951F920F9292
:1015E0000FB60F9211242F933F934F935F936F93F6
:1015F0007F938F939F93AF93BF93EF93FF9383ED6D
:1016000092E00E945203FF91EF91BF91AF919F91A1
:101610008F917F916F915F914F913F912F910F909B
:101620000FBE0F901F9018951F920F920FB60F923A
:1016300011242F938F939F93EF93FF93E091E302F5
:10164000F091E4028081E091E902F091EA0282FDEA
:1016500012C090818091EC028F5F8F732091ED0218
:10166000821751F0E091EC02F0E0ED52FD4F958FC2
:101670008093EC0201C08081FF91EF919F918F9147
:101680002F910F900FBE0F901F90189508950895F9
:1016900080E090E008950895CF93DF93E3EDF2E0CA
:1016A0001382128288EE93E0A0E0B0E084839583F9
:1016B000A683B78384E091E09183808385EC90E0FA
:1016C0009587848784EC90E09787868780EC90E00C
:1016D000918B808B81EC90E0938B828B82EC90E0FD
:1016E000958B848B86EC90E0978B868B118E128E77
:1016F000138E148ECCE9D3E01D821C8286E191E02A
:101700009B838A8380E490E09F838E839987888778
:1017100080E793E09B878A87BC018EE993E00E9473
:10172000E60384E391E09983888384E591E09B83D9
:101730008A83DF91CF910895789484B5826084BDC7
:1017400084B5816084BD85B5826085BD85B58160C5
:1017500085BD80916E00816080936E001092810043
:1017600080918100826080938100809181008160FE
:1017700080938100809180008160809380008091BF
:10178000B10084608093B1008091B000816080934B
:10179000B00080917A00846080937A0080917A0012
:1017A000826080937A0080917A00816080937A00D1
:1017B00080917A00806880937A001092C100E09155
:1017C000E302F091E40282E08083E091DF02F09195
:1017D000E0021082E091E102F091E2028FEC80835E
:1017E0001092EB02E091E702F091E80286E080833C
:1017F000E091E502F091E602808180618083E091D2
:10180000E502F091E602808188608083E091E50244
:10181000F091E602808180688083E091E502F0919A
:10182000E60280818F7D80838FE691E00E94BC0676
:1018300081E991E00E94BC060E94DC03FDCFAA1B57
:10184000BB1B51E107C0AA1FBB1FA617B70710F0AB
:10185000A61BB70B881F991F5A95A9F780959095DD
:10186000BC01CD010895052E97FB1EF400940E9443
:101870004A0C57FD07D00E94520C07FC03D04EF4CF
:101880000C944A0C50954095309521953F4F4F4F01
:101890005F4F089590958095709561957F4F8F4F1C
:1018A0009F4F0895A1E21A2EAA1BBB1BFD010DC07C
:1018B000AA1FBB1FEE1FFF1FA217B307E407F50700
:1018C00020F0A21BB30BE40BF50B661F771F881FDC
:1018D000991F1A9469F760957095809590959B0172
:1018E000AC01BD01CF010895EE0FFF1F0590F491EB
:1018F000E02D099481E090E0F8940C947F0CF8942A
:02190000FFCF17
:10190200000000007303E0020B03BA033C031A0356
:101912002E0300000000FF04E002B906B806DE064E
:10192200E603DE06B6090509E0061E0652040200B9
:10193200000000004B0B470B0000000000000000FD
:101942000000FEFF0000FEFF00000000000000009B
:10195200FEFF0000FF04E002B906B806480BE603EA
:10196200460BB6090509E0061E0652040D0A00459B
:1019720078616D706C65313A2053696D706C6520C9
:1019820042617265204E656365737369746965733C
:101992000057656C6C2C2074686973206973206130
:1019A20020676F6F64206C61756E636820706F6969
:1019B2006E7420696E206361736520796F7520777C
:1019C200616E7420746F206D616B6520796F757222
:1019D200206F776E20636C617373206F6620646979
:1019E20073706C61797320756E6465726E65617473
:1019F2006820746865206879706572646973706CB8
:101A02006179206C6962726172792E204861766513
:0A1A12002066756E21203A440000A2
:00000001FF
