:1000000000000320D1010000A906000061060000E5
:100010006106000061060000610600006106000044
:10002000610600006106000061060000A9060000EC
:10003000A9060000610600006118000065190000B3
:10004000A9060000A9060000A9060000A9060000F4
:10005000A9060000A9060000A9060000A9060000E4
:10006000A9060000A9060000A9060000A9060000D4
:10007000A9060000A9060000A9060000A9060000C4
:10008000A9060000A9060000A9060000A9060000B4
:10009000A9060000A9060000A9060000A9060000A4
:1000A000A9060000A9060000A9060000A906000094
:1000B000A9060000A9060000A9060000891C00008E
:1000C000A9060000B51D0000A9060000E11E000001
:1000D000A9060000D91F0000A9060000A90600001B
:1000E000A9060000A9060000A9060000A906000054
:1000F000A9060000A9060000A9060000A906000044
:10010000A9060000A9060000A9060000A906000033
:10011000A9060000F90A0000A9060000A9060000CF
:10012000A9060000A9060000A9060000A906000013
:10013000A9060000A9060000A9060000A906000003
:10014000A9060000A9060000D1200000A9060000B1
:10015000A9060000A9060000A9060000A9060000E3
:10016000A9060000A9060000A9060000A9060000D3
:10017000A9060000A9060000A9060000A9060000C3
:10018000A9060000A9060000A9060000A9060000B3
:10019000A9060000A9060000C9210000A906000068
:1001A000A9060000A9060000A9060000A906000093
:1001B000A9060000A9060000A9060000A906000083
:1001C000A9060000A9060000A9060000A906000073
:1001D0005C4B4CF2205210B51A804DF628121A8052
:1001E00000BF00BF00F064FA574B4FF030621A6056
:1001F000564A9A60564ADA60564B4FF470021A60BB
:10020000554B564A1A60564A136813F4807304D14A
:1002100054490B604FF4A8531360534B1A781107DD
:1002200003D51A7842F008021A70504B5049AA229E
:100230001A70504A504B8B4204D252F8040F43F8C4
:10024000040BF8E74D4B4E4900228B4202D243F893
:10025000042BFAE74B494C4A002352F8230041F89B
:1002600023000133742BF8D1484B494A802103F80D
:10027000011B9342FBD1474B424A1A60464B8A22EC
:100280001A70A3F5805324225A70A0221A709A790A
:100290009207FCD59A79D406FCD4404A937903F0AE
:1002A0000C03082BFAD13E4B60221A7002331A78E5
:1002B000802AFCD1394B01221A715D225A719A7938
:1002C0009006FCD59979354A4906FBD5354B364918
:1002D00019600021596020231370937903F00C03F7
:1002E0000C2BFAD1314B324A1A60324B324A1A6027
:1002F00000225A60072243F8042C304AC3F80C2D20
:1003000062B600F08BFA174B1B68DA0705D52C484C
:1003100000F020FA2B4B2C4A1A602C4B1B785B0602
:1003200009D5284C284B22689A4204D1244800F071
:1003300011FA0023236002F00DF800F0BFF901F07C
:100340007DFBFEE70E20054030800440823F040024
:100350000100002B88ED00E0002008E0030000858C
:1003600010D0034014D0034002D0074000E0074003
:100370002C10FF1FE82D00003007FF1F2C10FF1F5F
:10038000E414FF1F0002FF1F0000000000E400E073
:1003900064E400E008ED00E0005006400040064044
:1003A00001E007404480044000000602048004404D
:1003B000C010070014E000E01FBF02000000202072
:1003C000A15E605B1CE00340A5C3945A00F00740A7
:1003D000FFFFFFFFFFFFFFFFFFFFFFFFFFFFFFFF2D
:1003E000FFFFFFFFFFFFFFFFFFFFFFFFFFFFFFFF1D
:1003F000FFFFFFFFFFFFFFFFFFFFFFFFFFFFFFFF0D
:10040000FFFFFFFFFFFFFFFFFFFFFFFFDEF9FFFF23
:1004100010B5054C237833B9044B13B10448AFF33E
:1004200000800123237010BD2C10FF1F000000006E
:10043000EC2D0000084B10B51BB108490848AFF37C
:1004400000800848036803B910BD074B002BFBD0A0
:10045000BDE81040184700BF000000003010FF1F2B
:10046000EC2D00002C10FF1F000000000020704742
:10047000704700BF00207047704700BF10B511489B
:100480000C460C2101F078F89CB1022C08D1012116
:100490000D4801F071F80D48BDE8104001F07EBA3A
:1004A00001210B4801F068F80848BDE8104001F050
:1004B00075BA0121074801F05FF80448BDE8104013
:1004C00001F06CBAD42C0000E82C00003807FF1FA4
:1004D000EC2C0000E42C00000978FFF7CFBF00BF30
:1004E0000021024A01710260704700BFB02C000079
:1004F00000207047704700BFF8B5134C0F784E7856
:100500008D781248182101F037F8394600230A2265
:10051000204601F053FA06210D4801F02DF831462E
:1005200000230A22204601F049FA0621094801F079
:1005300023F82946204600230A2201F03FFA2046EC
:10054000BDE8F84001F02ABA3807FF1F1C2D000053
:10055000382D0000402D00000021024A0171026088
:10056000704700BFF82C0000704700BF10B54FF473
:100570007A7082B000F000F902A9022301F8053D6B
:100580000848FFF7A9FFFF247F22032301A906489B
:100590008DF804408DF805208DF80630FFF7ACFF8C
:1005A00002B010BD6010FF1F4810FF1F08B50448BF
:1005B000FFF796FF0348BDE80840FFF7CDBF00BF37
:1005C0006010FF1F4810FF1F704700BF10B582B0BA
:1005D000BDF81400BDF8184000900194084611467B
:1005E0001A46049BFFF7F0FF02B010BD704700BF32
:1005F00010B582B0BDF81400BDF818400090019409
:10060000084611461A46049BFFF7F0FF02B010BDE2
:10061000704700BF30B583B0BDF8185007989DF8FB
:10062000204000900194084611461A462B46FFF7D9
:10063000EFFF03B030BD00BF704700BF30B583B0DF
:10064000BDF81850BDF81C00089C009001940846A5
:1006500011461A462B46FFF7EFFF03B030BD00BF2F
:1006600008B5104C08E0236859050DD423681A0515
:100670000FD42368DB0411D423685803F3D500F0AA
:100680003BFA23685905F1D501F0FEFA23681A05F3
:10069000EFD501F08FFB2368DB04EDD501F020FCE2
:1006A000EAE700BF3480044008B5FFF7D9FF00BF78
:1006B000014B10221A80704700200540704700BF90
:1006C000094908B50B6830B16A461844A2F50052D2
:1006D000904202D20860184608BD01F035FE0C2396
:1006E00003604FF0FF3008BD3007FF1F084A137842
:1006F000802B01D0002070470649074B074808604F
:10070000002119701378802BFCD00120704700BFA6
:1007100003E007404480044001E007400000282235
:10072000094A1378012B01D00020704703F1804360
:1007300003F5FC23602119701378802BFCD1034B47
:10074000034A1A600120704703E0074044800440D8
:100750000000060230B4054B054D064C0022102166
:100760001A602A602060196030BC704714D00340C2
:1007700004D0034000D003402DE9F843054672B68B
:10078000224F234B234A1B683C68126862B6520111
:1007900002D5322B88BF0134B5B3C3F52F3303F232
:1007A0001F331D4EDFF86890DFF868809B084FF418
:1007B0007A72A6FB031302FB04F404EB930472B6F3
:1007C000D9F800103A68D8F800E062B6C1F52F33C6
:1007D00003F21F339B08A6FB03031EF0806FC4EBDC
:1007E00093034FF47A7002D0322988BF013200FBA4
:1007F0000233B3F57A7F04D3013D05D004F57A7452
:10080000DDE701F039F9DAE7BDE8F8837810FF1F7A
:1008100018E000E004ED00E0176CC116F8B54E4B8F
:100820004E48DFF85CC14E4C4E49DFF858E14E4E61
:100830004E4D4F4F4FF000621A604FF080521A60D9
:100840004FF000521A604FF080421A604FF00042A1
:100850001A600022026028234EF6FF70CCF80000D8
:10086000CEF8003023600EF5012E0B6033602B6054
:1008700006F500263B6005F50025A36207F5002775
:100880008B6204F5012401F5012106F6E87605F6F0
:10089000E87507F57F6710310EF1100E20343360D4
:1008A0002B60CEF800303B600B602360314CBB61A5
:1008B0008B6109212160A7F5002704F58054203FB2
:1008C00008343A602060BB60E36047F8041C04F51C
:1008D000FD2407F5FE27043704F2FC74226038601B
:1008E000A360FB6044F8041C083404F6FC74C7F8E9
:1008F000FC2F2060A4F5E124A4F2DC7433602B60AB
:10090000C7F8F81F21681C4841F400712160016894
:100910001A4C0EF57F4E0EF1E80E07F5883706F5F6
:10092000803605F5803541F000710160CEF8002079
:1009300047F6FF710822396033602B60226001F0B6
:10094000FDF81920FFF718FF00F002FD40F2131028
:10095000BDE8F840FFF710BF04E100E00480034069
:10096000148003401C800340248003402C800340FB
:1009700034800340008003400480044000900C4019
:10098000088003400C800340431E032B14D872B62A
:100990000A4951F8230068B170B4094C058834F84D
:1009A0001320466841F82360521B24F8132062B6D6
:1009B00070BC704762B6704700207047D410FF1FAC
:1009C000CC14FF1F013803280BD872B6074B53F81D
:1009D000203043B100205B680130002BFBD162B6B0
:1009E0007047002070471846F9E700BF2811FF1F25
:1009F000F0B472B61A491B4E012311F8014B194F7E
:100A00009A00240742F0010505D556F8324064B13A
:100A100056F83520BAB10133052BEED162B6124B30
:100A200000221A70F0BC00F01BBD0F4C0F4D217856
:100A300047F8325007EB431308304A1E58602270C3
:100A400062B6F0BC70470849094B0A7847F8353060
:100A500007EBC5030830013A58600A7062B6F0E748
:100A6000742D00000000FF1F5111FF1F880040007F
:100A7000C8004000431E032B1DD81B4A400140F014
:100A8000100030B4104472B6184CE25C032A1BD834
:100A9000DFE802F00212151703220D88E25410F06D
:100AA000080F14BFC823882343EA054308310360B5
:100AB000416062B630BC704708300222EDE7052283
:100AC000EBE708300422E8E7094A52F8230038B17E
:100AD000084A52F82300416042F8231062B6E9E761
:100AE00042F82310034AF7E70000FF1F6011FF1FC1
:100AF0002811FF1F3811FF1F2DE9F04FDFF804A365
:100B0000DFF804B387B044E0A94F4FEA930807EB3E
:100B1000C809013ED9F8042003F00803F6B2A2F197
:100B2000080003F0FF04002B40F0FE8057F8383037
:100B30001B0C99B222F8081C002B00F0EC809D4B96
:100B400022F8064C42F8044C53F82620002A00F004
:100B50002B82994D55F826305860984C45F8260060
:100B600034F81630194424F8161000F059FC002807
:100B700000F01382924A934B19F0080F00F108001D
:100B800018BF1346C9F8040047F8383008238AF81C
:100B900000309AF80040E4B260071AD58A4B1B78FF
:100BA000A3B18A490A7802F0FF0322B1013BDBB20C
:100BB0000B7003B900BE86490A7802F0FF032AB120
:100BC000013BDBB20B70002B00F0BD8104238AF8DF
:100BD000003004F0080303F0FF02002B00F0C8808F
:100BE0009BF80030DBB21E098ED19C08704F57F87D
:100BF000342007EBC401C2F38302013A49680C2A8E
:100C000000F28580DFE802F0797983838383838330
:100C100042838383070008686E4B6F4D0193684BD6
:100C20004A686E4E47F8343081B240F28164694BB5
:100C30006A60286000220120A1421A603A61BA610C
:100C4000307000F2E380B1F5D06F80F02782B1F50B
:100C5000817F00F0E08100F2C381802900F03682BC
:100C6000822940F0DE81A9885D4B01F07F010429D3
:100C700000F2D8815B4C89000B44227062701A78B4
:100C8000930740F122832070022023E2514B01930D
:100C90001A683AB3544B514E5449188834780D7839
:100CA0004028864645F0020828BF4FF0400E002C31
:100CB00084F001043470CEEB00000CBF8824C824FB
:100CC00007EBC80680B285F0010544EA0E44726065
:100CD000188047F8384072440D70002800F0B78043
:100CE000019B1A603C4B1A88B2F5A06F0FD100210E
:100CF0009A7859703E4B1A7009E0374A108842F2D0
:100D00002102904200F0A8802D4A47F83420394A49
:100D1000012313703AE72A4A2A4B19F0080F18BF2B
:100D2000134647F8383031E700F09AFB324A33492E
:100D300052F82630002B00F03B8158688C5D42F859
:100D4000260003F10802C9F80420032C05D8DFE8C7
:100D500004F02C02292602228A551A8819F0080F5D
:100D60000CBF8823C82343EA024347F838300DE715
:100D7000E00700F1EB80210600F12881A20706D5EB
:100D80001F4A204913780220DBB213700870E30673
:100D900002D51C4B10221A7007B0BDE8F08F042258
:100DA0008A55DAE705228A55D7E703228A55D4E720
:100DB0000000FF1FD410FF1F8010FF1FCC14FF1F67
:100DC000C8004000880040005C11FF1FE510FF1FB5
:100DD0006411FF1F7C10FF1F4811FF1FE410FF1F4D
:100DE000C02007405411FF1F9010FF1F5011FF1F1C
:100DF00098200740942007402811FF1F6011FF1F13
:100E000088200740802007409020074042F22104BC
:100E1000A14200F0948043D8B1F5086F00F0A8819A
:100E2000B1F5106F40F0FD80B84AB94CA978117047
:100E300004F1800503E00834AC4200F09E81236A8F
:100E40001906F8D5606A083800F00AFBF3E7BEF12E
:100E5000400F18BF002243E7AE4ACD1D11F8013BF9
:100E600002F8013FA942F9D1AB4A1268862A00F084
:100E70001181AA49AA4E0A78307882F0010500282B
:100E800042F002020D700CBF8821C82147F83210D1
:100E900007EBC20280F0010000213070516033E79F
:100EA00042F22124A14240F0FE81DFF8BCC29D4BFA
:100EB0009D49AC78DCF800501D6081460C70002024
:100EC000029080468446044694490D7845F0020E0F
:100ED00007EBCE03B9F1000F5C600CBF8824C82477
:100EE00044EA080385F0010447F83E3032700C7084
:100EF000DFF81CE28A4BDFF82482002840F098805B
:100F0000BCF1400F1BD144F0020407EBC403029F65
:100F1000DFF8FCE15F60002A40F09F80020442F0AD
:100F2000880207444EF8342086F800900D703B4646
:100F3000402804D100207D4A019910800B607C4A32
:100F400001231370E3E600F0F7FB3FE6704B7848AF
:100F500072491A614FF0020E80F800E0754F0A7076
:100F6000754919609960754E754D764C9A610D21E1
:100F70003970FF213170DFF8F4E129702270724D71
:100F8000724A8EF800109F27012406F8047C5D60E9
:100F90000470DA6007B0BDE8F08F6D4A47F838009A
:100FA000137801331370F1E543F82600694DD4E559
:100FB0008B5D032B67D801A252F823F08D0B000044
:100FC0008D0B0000111000000B10000059495C4B04
:100FD00080220D2008701A70A2077FF5D8AECFE6E8
:100FE00040F20232914240F05681A98801F07F011F
:100FF000042916D86A88A2B94E4C89000C4481464F
:10100000217841F00201217059E701238B55BDE59C
:1010100000238B55BAE5A98801F07F01042940F22D
:101020004781444B0F221A70414A012313706EE628
:1010300040287FF668AF44F002040EEBC401029E24
:101040004E60AAB1444A83F800903346403888F88D
:10105000005040334EF834206DE70204029B86F8BE
:10106000009042F0C8020D7003444EF834205FE750
:1010700083F80090029B304A88F800504038403393
:101080004EF8342057E719F0080F0CBF0223032352
:101090008B557BE5314A0F211170EAE6304A5468DE
:1010A000002CBED06888B5F804E003E00C32546828
:1010B000002CB6D013888342F8D153887345F5D1FC
:1010C000000A03280CBF2078108903E0254C022079
:1010D00022706270EA88824280F00C810F490D789C
:1010E000402A45F0020E944607EBCE0028BF4FF091
:1010F000400C04EB0C0344600293CCEB02004FEA7B
:101100000C484FF001090022C824E9E65C11FF1FDA
:101110000000FF1FD314FF1FD414FF1F5011FF1F27
:10112000E410FF1FDC14FF1F7411FF1F9010FF1F3E
:1011300094200740C02007408800400088200740D6
:1011400080200740982007409410FF1FE810FF1FE1
:101150005111FF1F8010FF1FC8004000E510FF1F46
:10116000782D00005411FF1F7810FF1F8C200740BE
:10117000684A694C12782270ACE76849684B694A42
:1011800002916949694C6A4D039405964FF0000934
:1011900088461C4616460495206828B1456800F02C
:1011A0005FF92846002DF9D100232360049B3068A5
:1011B0001A46002342F8293028B1456800F050F95A
:1011C0002846002DF9D100223260029A98F80030AA
:1011D0001146002241F8042B039A0291023B4FF082
:1011E000000122F81910032B07D8DFE803F03402BE
:1011F00034024FF0010388F8003009F10109B9F118
:10120000040F04F1040406F1040608F10108C3D137
:10121000484B059EDFF83091DFF8308100211970CE
:10122000012518F8013B09F8043B1A0718D4AC0053
:1012300044F0020244F00304002347F8323047F838
:1012400034303D4B994505F10105EAD196F80090FF
:1012500089F0010233E64FF0000388F80030CCE754
:1012600000F0DEF8AC0007EB451300F1080200289F
:1012700037D05A60314B47F8343000F0D1F844F0A1
:10128000010307EBC30200F1080100B351602C4ACF
:1012900047F83320CCE7B1F5A06F7FF4C2AE00224F
:1012A0004FF001090BE642F221329142F7D0B8E645
:1012B0006A88002A7FF4B5AE224C89000C4481462E
:1012C000217821F002012170F9E5022002E7194B93
:1012D00044F001021B7847F83200164A01331370BC
:1012E000A6E7144B134A1B78AC00013347F83400CF
:1012F0001370C2E74028844628BF4FF0400C04EB2F
:101300000C03CCEB00004FEA0C48029300224FF094
:101310000109D9E55C11FF1F5411FF1F3811FF1F90
:10132000D410FF1F2811FF1F6011FF1FCC14FF1FD7
:101330008010FF1F5111FF1FD4200740880040007C
:10134000C8004000C0200740C4200740742D0000A2
:101350002DE9F041274C00F0A9FF002204F188009C
:1013600023461A605A60083383424FF00001F8D1D7
:101370002148224A0368DFF89CE0214E214D224F8C
:10138000DFF894C0DFF8948043F48023036013688F
:1013900043F04073136003238EF80030A0233370B2
:1013A00002F5C922C4F3072300F528302B708030E2
:1013B000C4F3074310323B70240EFF230470134D17
:1013C0008CF80030124888F800301370012306F8BA
:1013D000AC3C4FF400140EF8441C7026102107F8A2
:1013E0002C3C2E70046082F8F810AEF1440EBDE87B
:1013F000F08100BF0000FF1F3480044000D800408F
:10140000402107409C200740B020074035E400E021
:1014100004E100E044210740802007408820074085
:1014200072B60D480268B2FA82F30B2B10DC4FF053
:101430000041D94022EA0102026062B6074803EB8C
:10144000C303DB00C2180021C15010465160704731
:1014500062B60020704700BF3407FF1FD003FF1F94
:101460000D4B0E4AC31AA2FB03231B090B2B0CD8EE
:101470000B4A127852B972B60A484FF0004102681E
:1014800021FA03F31A43026062B67047064A1278E3
:10149000002AF0D0FFF7ACBAD003FF1F398EE33833
:1014A0005111FF1F3407FF1F5C11FF1F38B50F4D8F
:1014B000286878B143880288C118013393420C7AB6
:1014C00002D24380204638BDFFF7CAFF00232046E2
:1014D0002B6038BD064B1B782BB10320FFF754FA65
:1014E00028600028E6D14FF0FF3038BD7011FF1F93
:1014F0005C11FF1F10B5094C206818B143881844CF
:10150000007A10BD064B1B782BB10320FFF73CFA85
:1015100020600028F2D14FF0FF3010BD7011FF1F86
:101520005C11FF1F044B054A1B6890881BB11A8889
:101530005B88D31A184470477011FF1FCC14FF1F2B
:101540000B4B1B789BB110B50A4C206848B1FFF7D4
:1015500087FF002303202360FFF716FA30B1FFF75F
:101560007FFF0320FFF710FA0028F8D110BD704765
:101570005C11FF1F7011FF1F2DE9F04FDFF8F8908D
:1015800083B0012289F80020019169B3DFF8EC8073
:10159000354F019E8346D8F80000B0B3334D4488E0
:1015A000C4F14001B14228BF314604EB010E0022D4
:1015B0001FFA8EFE2A70761AA0F802E000F10802E7
:1015C00051B1013C224459441BF8014B02F8014F30
:1015D0008B45F9D1B0F802E0BEF13F0F0BD8244A99
:1015E00005211170002ED6D10198002389F8003012
:1015F00003B0BDE8F08F4022028001460420FFF7CF
:1016000039FA0022C8F80020E9E73A7822B3194CE9
:10161000164D4FF0010A07E0013C16D02A78A2B916
:1016200000F02AFA3A78BAB10420FFF7CBF907287C
:10163000F2D889F800A0FFF7F3FEC8F800000028F0
:10164000ADD10D4B013C1870E8D101234FF0FF30B4
:101650002B7003B0BDE8F08F00234FF0FF3089F806
:10166000003003B0BDE8F08F5C11FF1F6C11FF1F4D
:101670006411FF1F214801006511FF1F6811FF1F42
:1016800000B583B002AB012103F8010D1846FFF746
:1016900073FF03B05DF804FB38B50E4D0E4C28689F
:1016A0000123237028B1408800232370C0F140003B
:1016B00038BD0A4B1B7813B90020207038BD0420B8
:1016C000FFF780F90728F7D8FFF7AAFE286000285F
:1016D000E9D1F1E76811FF1F6511FF1F5C11FF1FC2
:1016E000F8B5114B1B788BB1104E114D34680127A2
:1016F0002F7064B10F4A638800271770214623803A
:101700000420FFF7B7F9376000232B70F8BDFFF70F
:1017100087FE084B28B1014604201C70FFF7AAF988
:10172000F2E71F70F0E700BF5C11FF1F6811FF1F99
:101730006511FF1F6411FF1F38B50E4B1B7873B97D
:101740000D4C216861B103F0FF054B880B8004202C
:10175000FFF790F9256038BD084B01221A7038BD9B
:10176000FFF75EFE0028F7D00146BDE838400420B0
:10177000FFF780B96511FF1F6811FF1F6411FF1F7C
:1017800010B4EFF3108272B6437F33B9017F0129A1
:1017900008D0032910D00123437702B962B65DF85F
:1017A000044B7047114C2168A1B1114943610B688A
:1017B000836108605861EEE70E4C216881B10E49E3
:1017C00043610B688361086058610C4B4FF0805196
:1017D0001960E0E7064B4161816120601860DAE73B
:1017E000054B4161816120601860EEE78811FF1FA1
:1017F0008411FF1F7811FF1F7C11FF1F04ED00E013
:1018000010B4047F4160022CC26003D05DF8044B29
:10181000FFF7B6BF83685DF8044B184770B5EFF368
:10182000108272B60C4C206880B10C4E00254369C2
:10183000236073B19D6102B962B6457783689847AA
:10184000EFF3108272B620680028F0D102B962B6B8
:1018500070BD3360EFE700BF7811FF1F7C11FF1FE1
:10186000FFF7DCBF184A30B41468002C27D0036897
:1018700021688B420ED2CB1A00218460C1602360A4
:10188000E06010600223037530BC704711688B4222
:10189000144608D3A2685B1A0360002AF6D182605E
:1018A000C460A060EEE7D268C2608460E060C56892
:1018B000CB1A0222A8602360027530BC7047846096
:1018C000C4601060DEE700BF8011FF1FF8B5224E34
:1018D00034682CB32368002B3AD1204F1D4604E016
:1018E0003468ECB12368002B32D1A36803B1DD600A
:1018F00020693360036825751B68BB4221D1037FD3
:101900004560022BC46020D0FFF73AFF6368002BCC
:10191000E6D023602046FFF7A5FF3468002CE1D114
:10192000EFF3108372B60E4A00211068116003B9FC
:1019300062B628B18468FFF795FF20460028F9D1E8
:10194000F8BD224600219847E0E783689847DDE725
:10195000013B2360E4E700BF8011FF1F0118000076
:101960009011FF1F024A136801331360FFF7AEBFE7
:101970007810FF1FF8B572B106460F4614460025D1
:10198000336817F8011B1B6830469847013C054433
:10199000F6D12846F8BD1546FBE700BF00B5064A5C
:1019A000036812885B6883B001A9ADF804200222A5
:1019B000984703B05DF804FB482D0000F0B50746DA
:1019C0008BB0002A33D0012A08BF0A2251B3212448
:1019D00000E0F4B2B1FBF2F502FB1511C8B209291F
:1019E00000F1300198BFC8B20AA988BF373021443E
:1019F00088BFC0B201F8240C661E2946002DE8D12C
:101A000033B1013CE4B20AAB23442D2203F8242C69
:101A10003B6801AA11195B683846C4F12202984755
:101A20000BB0F0BD30228DF825202124E8E70368B3
:101A3000C9B21B6898470BB0F0BD00BF08B5FEF7F0
:101A400093FDFEF793FD00F017F8FAE7FFF778BD76
:101A5000FFF750BDFFF72ABDFFF764BDFFF740BE9B
:101A6000FFF71ABE08461146FFF786BD0846FFF786
:101A700007BE00BF704700BF38B52C4C237803B1B8
:101A800038BD01232370FFF74DFD002842D100F03F
:101A9000EBF800283BD100F07DF9002834D100F0AC
:101AA0000FFA70BB00F088FA40BB00F001FB10BBDE
:101AB00000F07AFBE0B900232370EFF30583002BDD
:101AC000DED1EFF3108172B6194B186828B3194CA8
:101AD000227812BB45691D60012323700DB3AA61F2
:101AE00001B962B600254577836898472570C7E736
:101AF00000F028FCDFE700F023FCD9E700F01EFC33
:101B0000D3E700F019FCCDE700F014FCC7E700F0C4
:101B10000FFCC0E7FFF7AEFFB9E70029B0D162B60E
:101B200038BD054B1D600029DCD1DAE79411FF1F99
:101B30008811FF1F8C11FF1F8411FF1F30B429482B
:101B4000294A2A4B2A4D6024E121047011701B7828
:101B5000284C082B30D00A2B2748284937D00C2B8B
:101B60000CBF35225D2212232A60236002600B60C5
:101B7000234B24491B78244ABBB101230B6013601B
:101B8000224B23491B78234A012B26D9042B0FD93A
:101B9000082B1ED9102B94BF862387230B6013605C
:101BA0001D4B01221A7030BC70470B601360E7E7D1
:101BB00084230B601360F3E700F58E200F49083093
:101BC000212213232A60236002600B60D0E73922B0
:101BD000F7E785230B601360E2E780230B60136057
:101BE000DEE700BF00400740014007404807FF1FF5
:101BF00008B003400CB0034008B00B400CB00B40E1
:101C00009611FF1F20B0034020B00B404907FF1F73
:101C100024B0034024B00B409511FF1FF0B44D1EBB
:101C20002E46002400E00134B0FBF2F302FB130067
:101C3000092800F130078ABF3730F8B2C0B206F881
:101C4000010F1846002BEED10A1953704CB11078D1
:101C500015F8016F28700133E01A834202F8016918
:101C6000F5DB0846F0BC7047054A064B10781B7838
:101C7000C0B2DBB2984238BF4030C01A704700BFD4
:101C80009C11FF1F9D11FF1FF0B4384B1A7912F001
:101C9000300F2CD072B6997D01F0FF0200293DD0A3
:101CA00062B6334F334938780D78334E1C46C0B294
:101CB000EDB2431C402BE17928BF0023AB4202F177
:101CC000FF32C9B21CBFF154184612F0FF02F0D126
:101CD0002A4B1B68C2B23A704BB1A84236BFC5F15D
:101CE0004005401B40192728C4BF01221A701F4914
:101CF000CA78D2B2150616D452060DD51B4B1B79E5
:101D00005B0609D51E4B1F491B6800220A7003B1F0
:101D10001A70164B3C22DA70F0BC70474022D97919
:101D20005A7462B6E3E70B791C06E5D5164B174EDD
:101D30001C783378E4B2DBB29C420ED0144D01E043
:101D4000A3420AD00133402B28BF00230879E85C66
:101D5000C0B2C871087D0728F2D9DBB203493370DD
:101D60000B79180644BF7C23CB70C5E700A0064062
:101D70009C11FF1F9D11FF1FE011FF1F9811FF1FF6
:101D80002412FF1F2012FF1F2812FF1F2112FF1F06
:101D9000A011FF1F054A064B10781B78C0B2DBB2BA
:101DA000984238BF4030C01A704700BF9C12FF1FD6
:101DB0003112FF1FF0B4384B1A7912F0300F2CD0CB
:101DC00072B6997D01F0FF0200293DD062B6334F13
:101DD000334938780D78334E1C46C0B2EDB2431CFF
:101DE000402BE17928BF0023AB4202F1FF32C9B298
:101DF0001CBFF154184612F0FF02F0D12A4B1B68A9
:101E0000C2B23A704BB1A84236BFC5F14005401B83
:101E100040192728C4BF01221A701F49CA78D2B2BC
:101E2000150616D452060DD51B4B1B795B0609D53A
:101E30001E4B1F491B6800220A7003B11A70164B13
:101E40003C22DA70F0BC70474022D9795A7462B6ED
:101E5000E3E70B791C06E5D5164B174E1C78337853
:101E6000E4B2DBB29C420ED0144D01E0A3420AD092
:101E70000133282B28BF00230879E85CC0B2C87161
:101E8000087D0728F2D9DBB2034933700B791806B5
:101E900044BF7C23CB70C5E700B006409C12FF1FF7
:101EA0003112FF1F5C12FF1F2C12FF1FA012FF1F19
:101EB0003012FF1FA412FF1F9D12FF1F3412FF1FBD
:101EC000054A064B10781B78C0B2DBB2984238BF87
:101ED0004030C01A704700BFAC12FF1FAD12FF1F89
:101EE00030B42B4B1A7994061FD52A48DA79037837
:101EF000294901333F2B0978C8BF00238B42D2B256
:101F000003D0264CD9B2E2540170254A116861B160
:101F1000244A1278D2B2934236BFC2F140029B1AD1
:101F20009B18272BC4BF01230B70194AD378DBB24F
:101F3000180611D45A060DD5154B1B795B0609D529
:101F4000194B1A491B6800220A7003B11A70104B12
:101F50002C22DA7030BC704711790906EAD5144991
:101F600010480C780178C9B28C420DD04A1C272A3F
:101F700084BF00210A460F4D054C98BFD1B2AA5C20
:101F8000D2B2E2710170D5E76C21D170D2E700BF07
:101F900000C00640AC12FF1FAD12FF1FD812FF1F7A
:101FA000A812FF1F1913FF1F1C13FF1F1813FF1F79
:101FB0002013FF1FB012FF1F054A064B10781B7835
:101FC000C0B2DBB2984238BF4030C01A704700BF81
:101FD0002813FF1F2913FF1F30B42B4B1A799406C7
:101FE0001FD52A48DA790378294901333F2B09782C
:101FF000C8BF00238B42D2B203D0264CD9B2E254E0
:102000000170254A116861B1244A1278D2B2934214
:1020100036BFC2F140029B1A9B18272BC4BF012375
:102020000B70194AD378DBB2180611D45A060DD5B5
:10203000154B1B795B0609D5194B1A491B68002201
:102040000A7003B11A70104B2C22DA7030BC704742
:1020500011790906EAD5144910480C780178C9B2FB
:102060008C420DD04A1C272A84BF00210A460F4DFE
:10207000054C98BFD1B2AA5CD2B2E2710170D5E72B
:102080006C21D170D2E700BF00D006402813FF1F9B
:102090002913FF1F5413FF1F2413FF1F9513FF1F46
:1020A0009813FF1F9413FF1F9C13FF1F2C13FF1F78
:1020B000054A064B10781B78C0B2DBB2984238BF95
:1020C0004030C01A704700BFA413FF1FA513FF1FA5
:1020D00030B42B4B1A7994061FD52A48DA79037845
:1020E000294901333F2B0978C8BF00238B42D2B264
:1020F00003D0264CD9B2E2540170254A116861B16F
:10210000244A1278D2B2934236BFC2F140029B1ADF
:102110009B18272BC4BF01230B70194AD378DBB25D
:10212000180611D45A060DD5154B1B795B0609D537
:10213000194B1A491B6800220A7003B11A70104B20
:102140002C22DA7030BC704711790906EAD514499F
:1021500010480C780178C9B28C420DD04A1C272A4D
:1021600084BF00210A460F4D054C98BFD1B2AA5C2E
:10217000D2B2E2710170D5E76C21D170D2E700BF15
:1021800000A00E40A413FF1FA513FF1FD013FF1FB5
:10219000A013FF1F1114FF1F1414FF1F1014FF1FA3
:1021A0001814FF1FA813FF1F054A064B10781B7851
:1021B000C0B2DBB2984238BF4030C01A704700BF8F
:1021C0002014FF1F2114FF1F30B42C4B5A689402B7
:1021D0001FD52B48DA6803782A4901333F2B097849
:1021E000C8BF00238B4204D0274CD2B2D9B2E254EC
:1021F0000170264A116861B1254A1278D2B2934221
:1022000036BFC2F140029B1A9B18272BC4BF012383
:102210000B701A4A9368180202D55268110211D441
:102220005A020DD5154B5B685B0209D5194B1A494B
:102230001B6800220A7003B11A70184B00221A6042
:1022400030BC7047164A124910780A78D2B29042D0
:102250000DD00132272A84BF00200246114D074CC1
:1022600098BFD0B2AA5CD2B2E2600870D8E70E483C
:102270000A4A0024012104601160D1E700400C40AB
:102280002014FF1F2114FF1F4C14FF1F1C14FF1FDD
:102290008D14FF1F9014FF1F8C14FF1F58018843DB
:1022A0009414FF1F2414FF1F5C01884310B584B0F1
:1022B00072B6FEF71BFA184A184B194911607022C2
:1022C00080211A701A46197013781B06FCD5154B1D
:1022D0001C68FEF725FA62B6134B9C429CBF04EBC8
:1022E000840464002046114C01A90A22FFF796FCE1
:1022F00001A92046002311F8012B01333AB10A2B22
:1023000020F8022FF7D11623237004B010BD5B0014
:10231000DBB2237004B010BD040002400000024094
:10232000000007410C0002407F969800D807FF1F6D
:10233000704700BF704700BF704700BF704700BFC5
:10234000704700BF704700BF014B1868704700BF5F
:10235000180CFF1F70B50F4E0F4D761BB61018BF2F
:10236000002405D0013455F8043B9847A642F9D122
:102370000A4E0B4D761B00F02BFDB61018BF002443
:1023800006D0013455F8043B9847A642F9D170BDF8
:1023900070BD00BFDC2D0000DC2D0000E82D00002A
:1023A000DC2D0000024B0146186800F003B800BFA6
:1023B000180CFF1F2DE9F04F01F10B05162D83B00E
:1023C000064640F29F8035F0070500F1BF80A94224
:1023D00000F2BC8000F0A6FAB5F5FC7FC0F09C824C
:1023E0006B0A00F0BA80042B00F28381A80900F187
:1023F000390E4FEA4E033830C44F07EB8303A3F185
:1024000008015C68A14207D1ACE0002A80F2AC80F0
:10241000E468A14200F0A680636823F003035A1B1E
:102420000F2AF2DDB9493C6901F1080E744500F04C
:10243000B381636823F003035A1B0F2A00F39981C9
:10244000002AC1F814E0C1F810E080F29E80B3F5D4
:10245000007F80F06781DB0803F1010C01229B10F3
:1024600002FA03F34A6851F83C80C4F8088001EB93
:10247000CC091A43A9F10803E3604A6041F83C40E3
:10248000C8F80C40831001249C40944200F28A80DA
:10249000144206D120F003006400144200F104004D
:1024A000FAD007EBC009CC468046DCF80C108C450E
:1024B00007D173E1002A80F28181C9688C4500F060
:1024C0006D814B6823F003035A1B0F2AF2DD0C4683
:1024D000D1F80CC054F8088F4B1945F001054D6038
:1024E00042F00101C8F80CC03046CCF808807B618E
:1024F0003B61C3F80CE0C3F808E059609A5000F063
:1025000013FA1FE0102921D800F00CFA1025062339
:1025100002207E4F07EB8303A3F108025C6894421C
:1025200000F045816368E168A56823F00303234454
:1025300030465A68E96042F001028D605A6000F04E
:10254000F3F90834204603B0BDE8F08F00240C23D3
:102550002046336003B0BDE8F08F80234FF0400E7B
:102560003F2049E770465DE72344E1685A68A56863
:1025700042F00102E96030468D605A6000F0D4F903
:102580000834204603B0BDE8F08F234430465A6833
:1025900042F001025A6000F0C7F90834204603B047
:1025A000BDE8F08FBC68636823F00308A84504D336
:1025B000C5EB08030F2B00F38C80554BDFF86091BF
:1025C0001A68D9F8003001332A4404EB080A00F0F5
:1025D000608102F580520F3222F47F6222F00F02F6
:1025E00011463046019200F0A1F9B0F1FF3F834659
:1025F000019A00F05881824500F2FC80454B196831
:10260000DA451144196000F05381D9F80000DFF871
:1026100010E101301BBFCAEB0B0A5144CEF800B0E9
:1026200019601BF0070100F01781C1F10800C1F526
:102630008051834408315A44C2F30B02C2EB0109B2
:1026400049463046019300F071F9431C019B00F0AC
:102650003F81CBEB00024A4442F001021968C7F8FF
:1026600008B04944BC42CBF804201960DFF8A490BC
:1026700016D0B8F10F0F40F2FD806268A8F10C038C
:1026800023F00703E01802F001024FF0050E1A4391
:102690000F2B6260C0F804E0C0F808E000F21C8173
:1026A0001D4BBC681A68914288BF19601B4B1A68A1
:1026B0009142626888BF196022F003029542A2EB42
:1026C000050301D80F2B04DC304600F02DF900245F
:1026D00038E7621943F0010345F0010565603046B3
:1026E000BA60536000F020F90834204603B0BDE81A
:1026F000F08F142B71D9542B00F2A480280B00F119
:102700006F0E4FEA4E036E3076E600BF1C0CFF1FC3
:10271000A014FF1FA414FF1F9C14FF1F9814FF1F79
:102720002810FF1F5A0A042A5ED9142A00F2B38027
:1027300002F15C0149005B3207EB810C57F8211074
:10274000DFF8DC81ACF1080C8C4500F088804A6829
:1027500022F00302934202D289688C45F7D1D1F866
:102760000CC07A68C4F80CC0A160CCF80840CC60FA
:1027700088E6631942F0010745F0010565603046BF
:102780004B610B61C3F80CE0C3F808E05F609A503E
:10279000083400F0C9F8D5E64A6873E608F1010884
:1027A00018F0030F0CF1080C7FF47FAE30E0DC680A
:1027B000A34208BF02303FF435AEB3E60B440C46EB
:1027C0005A68C96854F8085F42F001025A603046FE
:1027D000E9608D6000F0A8F8B4E603F15C0E03F147
:1027E0005B004FEA4E0307E69A0902F139014900FE
:1027F0003832A1E7BC424A4B3FF400AF9C686268A4
:1028000022F003025AE759F80839994540F08280CE
:1028100010F0030F00F1FF30F5D17B6823EA0403C9
:102820007B6064009C423FF6BDAE002C3FF4BAAE24
:102830001C4240467FF435AE64001C4200F10400A7
:10284000FAD02EE6B3F5AA7F18D8E80B00F1780E7F
:102850004FEA4E037730CFE54FF48051EBE601218C
:10286000D8F80430921001FA02F21A43C8F8042092
:10287000614677E70123CBF8043025E740F2545254
:10288000934220D8A80C00F17D0E4FEA4E037C3015
:10289000B2E51032A4E6542A26D81A0B02F16F01D1
:1028A00049006E3248E7BC68626822F0030205E71F
:1028B000CAF30B0000287FF4A8AE4244BB6842F084
:1028C00001025A60ECE6FE234FF07F0E7E2093E576
:1028D00001224FF00009C1E604F10801304600F082
:1028E000A9F8D9F80010DBE6B2F5AA7F05D8DA0B13
:1028F00002F17801490077321EE740F254518A42D2
:1029000005D89A0C02F17D0149007C3214E7FE21C2
:102910007E2211E77B6884E7E808431C5B00F8E54A
:102920001C0CFF1F704700BF704700BF38B5074C35
:102930000023054608462360FDF7C2FE431C00D075
:1029400038BD2368002BFBD02B6038BDE014FF1F7F
:10295000024B13B1024800F005B8704700000000B8
:1029600071290000002301461A46184600F04AB9B2
:1029700038B5074D074C2C1BA41005D0013C55F869
:10298000043D9847002CF9D1BDE8384000F02CBA3E
:102990000000000000000000F8B5234F0C4606467A
:1029A000FFF7C0FFBB685D6825F00305291B01F632
:1029B000EF7121F47F6121F00F01A1F58054B4F58E
:1029C000805F07DB00213046FFF7B0FFBB682B4478
:1029D000984204D03046FFF7A7FF0020F8BD6142BF
:1029E0003046FFF7A3FF01300DD0104BBA681968CD
:1029F0002D1B45F001053046091B55601960FFF796
:102A000093FF0120F8BD00213046FFF78FFFBA6821
:102A1000831A0F2BDEDD064C0449246843F00103C2
:102A2000001B53600860D5E71C0CFF1FA414FF1F98
:102A30002810FF1F002945D02DE9F0410D468046A2
:102A4000FFF770FF55F8047C6A4927F00103A5F1F0
:102A50000804E2188E685068B24220F0030062D089
:102A6000FE0750600BD455F8087CE41B01F1080EFA
:102A7000A56875453B446FD0E768EF60BD601518E9
:102A80006D68ED0742D543F001026260E350B3F593
:102A9000007F18D2DB085A1C4D6851F83270A760CD
:102AA00001209B1000FA03F301EBC2001D4308381C
:102AB000E0604D6041F83240FC604046BDE8F041C6
:102AC000FFF732BF70475A0A042A53D89A0902F115
:102AD00039077F0002F1380501EB870051F8272004
:102AE0004449083890424DD0516821F003018B428F
:102AF00002D292689042F7D1D068E060A260846010
:102B0000D4604046BDE8F041FFF70EBF95683A4FEC
:102B1000BD4203443FD0D068E86043F001028560C5
:102B20006260E350B3E7FF07034407D455F8082C6D
:102B3000A41A1344A068E268C26090602F4A126829
:102B400043F00100934260608C60B6D32C4B40464A
:102B50001968FFF721FFB0E711184968C90744D485
:102B60009168D268CA60034443F0010091606060DC
:102B7000E350A2E7142A17D802F15C077F0002F1A4
:102B80005B05A9E7AA104B68012505FA02F2134379
:102B90004B600246B1E743F001024C610C61E56015
:102BA000A5606260E35088E7542A06D81A0B02F148
:102BB0006F077F0002F16E058EE7B2F5AA7F06D897
:102BC000DA0B02F178077F0002F1770584E740F223
:102BD0005450824206D89A0C02F17D077F0002F120
:102BE0007C0579E7FE277E2576E743F001026260E7
:102BF000E35062E71C0CFF1F240CFF1F2410FF1F73
:102C0000A014FF1F2DE9F047254C2568D5F8484151
:102C10000646884692469946C4B360681F2817DC6A
:102C2000431C76B104EB80050122C5F888A0D4F8D6
:102C3000881182401143022EC4F88811C5F808910A
:102C40001ED00230636044F820800020BDE8F08789
:102C5000144B03B34FF4C870FFF7A4FB0446D0B184
:102C6000D5F84831002780E88800C5F84841384643
:102C70000123C4F88871C4F88C71002EE1D0D1E72B
:102C8000D4F88C110A43C4F88C21DAE705F5A67450
:102C9000C5F84841C1E74FF0FF30BDE8F08700BFFD
:102CA000CC2D0000A5230000000000000000000063
:102CB00075040000751900006D0400007104000027
:102CC00079040000CD050000F105000015060000A4
:102CD0003D06000045496E6B20636F6C6F723A20B1
:102CE0000000000052000000570000004200FFFFFB
:102CF0000000000000000000F10400007519000051
:102D00006D04000071040000F5040000CD05000012
:102D1000F1050000150600003D0600004F4C45443B
:102D200020436F6C6F7220547970656465663A2039
:102D300052203D20000000002C2047203D200000B4
:102D40002C2042203D2000000D0AFFFF0000000063
:102D5000000000006D1A0000651A0000611A0000F2
:102D60005D1A0000591A0000551A0000511A00009F
:102D70004D1A000000151915000100004C07FF1F37
:102D800012000000000200007807FF1F430000004F
:102D900000030000D407FF1F000000000103090426
:102DA0006007FF1F0000000002030904BC07FF1FAB
:102DB0000000000003030904D807FF1F0000000003
:102DC000000000000000000000000000F007FF1FEE
:102DD000F8B500BFF8BC08BC9E46704751290000FA
:082DE00035040000AD05000000
:042DE800F8B500BF7B
:102DEC00E414FF1FFFFFFFFF542D00000000000044
:102DFC00E8030000000000000A04000012011001AA
:102E0C0002000040C0168304770201020301000097
:102E1C0018035400650065006E00730079006400AF
:102E2C00750069006E006F0009024300020100C0CA
:102E3C003209040000010202010005240010010502
:102E4C002401010104240206052406000107058261
:102E5C000310004009040100020A000000070503EA
:102E6C0002400000070584024000000016035500D4
:102E7C00530042002000530065007200690061009D
:102E8C006C000000040309040C03000000000000A7
:102E9C000000000000000000000000000000000026
:102EAC0000000000DC0AFF1F440BFF1FAC0BFF1FD0
:102EBC000000000000000000000000000000000006
:102ECC0000000000000000000000000000000000F6
:102EDC0000000000000000000000000000000000E6
:102EEC0000000000000000000000000000000000D6
:102EFC0000000000000000000000000000000000C6
:102F0C0000000000000000000000000000000000B5
:102F1C0000000000000000000000000000000000A5
:102F2C000000000000000000000000000000000095
:102F3C000000000000000000000000000000000085
:102F4C000000000000000000010000000000000074
:102F5C000E33CDAB34126DE6ECDE05000B00000039
:102F6C000000000000000000000000000000000055
:102F7C000000000000000000000000000000000045
:102F8C000000000000000000000000000000000035
:102F9C000000000000000000000000000000000025
:1032CC000000000000000000F007FF1F00000000DD
:1032DC00000000001C0CFF1F1C0CFF1F240CFF1F08
:1032EC00240CFF1F2C0CFF1F2C0CFF1F340CFF1F7A
:1032FC00340CFF1F3C0CFF1F3C0CFF1F440CFF1F2A
:10330C00440CFF1F4C0CFF1F4C0CFF1F540CFF1FD9
:10331C00540CFF1F5C0CFF1F5C0CFF1F640CFF1F89
:10332C00640CFF1F6C0CFF1F6C0CFF1F740CFF1F39
:10333C00740CFF1F7C0CFF1F7C0CFF1F840CFF1FE9
:10334C00840CFF1F8C0CFF1F8C0CFF1F940CFF1F99
:10335C00940CFF1F9C0CFF1F9C0CFF1FA40CFF1F49
:10336C00A40CFF1FAC0CFF1FAC0CFF1FB40CFF1FF9
:10337C00B40CFF1FBC0CFF1FBC0CFF1FC40CFF1FA9
:10338C00C40CFF1FCC0CFF1FCC0CFF1FD40CFF1F59
:10339C00D40CFF1FDC0CFF1FDC0CFF1FE40CFF1F09
:1033AC00E40CFF1FEC0CFF1FEC0CFF1FF40CFF1FB9
:1033BC00F40CFF1FFC0CFF1FFC0CFF1F040DFF1F68
:1033CC00040DFF1F0C0DFF1F0C0DFF1F140DFF1F15
:1033DC00140DFF1F1C0DFF1F1C0DFF1F240DFF1FC5
:1033EC00240DFF1F2C0DFF1F2C0DFF1F340DFF1F75
:1033FC00340DFF1F3C0DFF1F3C0DFF1F440DFF1F25
:10340C00440DFF1F4C0DFF1F4C0DFF1F540DFF1FD4
:10341C00540DFF1F5C0DFF1F5C0DFF1F640DFF1F84
:10342C00640DFF1F6C0DFF1F6C0DFF1F740DFF1F34
:10343C00740DFF1F7C0DFF1F7C0DFF1F840DFF1FE4
:10344C00840DFF1F8C0DFF1F8C0DFF1F940DFF1F94
:10345C00940DFF1F9C0DFF1F9C0DFF1FA40DFF1F44
:10346C00A40DFF1FAC0DFF1FAC0DFF1FB40DFF1FF4
:10347C00B40DFF1FBC0DFF1FBC0DFF1FC40DFF1FA4
:10348C00C40DFF1FCC0DFF1FCC0DFF1FD40DFF1F54
:10349C00D40DFF1FDC0DFF1FDC0DFF1FE40DFF1F04
:1034AC00E40DFF1FEC0DFF1FEC0DFF1FF40DFF1FB4
:1034BC00F40DFF1FFC0DFF1FFC0DFF1F040EFF1F63
:1034CC00040EFF1F0C0EFF1F0C0EFF1F140EFF1F10
:1034DC00140EFF1F1C0EFF1F1C0EFF1F240EFF1FC0
:1034EC00240EFF1F2C0EFF1F2C0EFF1F340EFF1F70
:1034FC00340EFF1F3C0EFF1F3C0EFF1F440EFF1F20
:10350C00440EFF1F4C0EFF1F4C0EFF1F540EFF1FCF
:10351C00540EFF1F5C0EFF1F5C0EFF1F640EFF1F7F
:10352C00640EFF1F6C0EFF1F6C0EFF1F740EFF1F2F
:10353C00740EFF1F7C0EFF1F7C0EFF1F840EFF1FDF
:10354C00840EFF1F8C0EFF1F8C0EFF1F940EFF1F8F
:10355C00940EFF1F9C0EFF1F9C0EFF1FA40EFF1F3F
:10356C00A40EFF1FAC0EFF1FAC0EFF1FB40EFF1FEF
:10357C00B40EFF1FBC0EFF1FBC0EFF1FC40EFF1F9F
:10358C00C40EFF1FCC0EFF1FCC0EFF1FD40EFF1F4F
:10359C00D40EFF1FDC0EFF1FDC0EFF1FE40EFF1FFF
:1035AC00E40EFF1FEC0EFF1FEC0EFF1FF40EFF1FAF
:1035BC00F40EFF1FFC0EFF1FFC0EFF1F040FFF1F5E
:1035CC00040FFF1F0C0FFF1F0C0FFF1F140FFF1F0B
:1035DC00140FFF1F1C0FFF1F1C0FFF1F240FFF1FBB
:1035EC00240FFF1F2C0FFF1F2C0FFF1F340FFF1F6B
:1035FC00340FFF1F3C0FFF1F3C0FFF1F440FFF1F1B
:10360C00440FFF1F4C0FFF1F4C0FFF1F540FFF1FCA
:10361C00540FFF1F5C0FFF1F5C0FFF1F640FFF1F7A
:10362C00640FFF1F6C0FFF1F6C0FFF1F740FFF1F2A
:10363C00740FFF1F7C0FFF1F7C0FFF1F840FFF1FDA
:10364C00840FFF1F8C0FFF1F8C0FFF1F940FFF1F8A
:10365C00940FFF1F9C0FFF1F9C0FFF1FA40FFF1F3A
:10366C00A40FFF1FAC0FFF1FAC0FFF1FB40FFF1FEA
:10367C00B40FFF1FBC0FFF1FBC0FFF1FC40FFF1F9A
:10368C00C40FFF1FCC0FFF1FCC0FFF1FD40FFF1F4A
:10369C00D40FFF1FDC0FFF1FDC0FFF1FE40FFF1FFA
:1036AC00E40FFF1FEC0FFF1FEC0FFF1FF40FFF1FAA
:1036BC00F40FFF1FFC0FFF1FFC0FFF1F0410FF1F59
:1036CC000410FF1F0C10FF1F0C10FF1F1410FF1F06
:0C36DC001410FF1F00000200FFFFFFFFA2
:00000001FF
